{
  "contractName": "MyContract",
  "abi": [
    {
      "anonymous": false,
      "inputs": [
        {
          "indexed": false,
          "internalType": "uint256",
          "name": "data",
          "type": "uint256"
        }
      ],
      "name": "DataChange",
      "type": "event"
    },
    {
      "inputs": [],
      "name": "data",
      "outputs": [
        {
          "internalType": "uint256",
          "name": "",
          "type": "uint256"
        }
      ],
      "stateMutability": "view",
      "type": "function",
      "constant": true
    },
    {
      "inputs": [
        {
          "internalType": "uint256",
          "name": "_data",
          "type": "uint256"
        }
      ],
      "name": "setData",
      "outputs": [],
      "stateMutability": "nonpayable",
      "type": "function"
    },
    {
      "inputs": [
        {
          "components": [
            {
              "internalType": "address",
              "name": "target",
              "type": "address"
            },
            {
              "internalType": "bytes",
              "name": "callData",
              "type": "bytes"
            }
          ],
          "internalType": "struct MyContract.Call[]",
          "name": "calls",
          "type": "tuple[]"
        }
      ],
      "name": "test",
      "outputs": [
        {
          "internalType": "uint256",
          "name": "a1",
          "type": "uint256"
        },
        {
          "internalType": "bytes",
          "name": "a2",
          "type": "bytes"
        }
      ],
      "stateMutability": "pure",
      "type": "function",
      "constant": true
    }
  ],
  "bytecode": "0x608060405234801561001057600080fd5b506109be806100206000396000f3fe608060405234801561001057600080fd5b50600436106100415760003560e01c80633a912077146100465780635b4b73a91461007757806373d4a13a14610093575b600080fd5b610060600480360381019061005b91906104f1565b6100b1565b60405161006e9291906105db565b60405180910390f35b610091600480360381019061008c9190610637565b610196565b005b61009b6101d7565b6040516100a89190610664565b60405180910390f35b600060606000836000815181106100cb576100ca61067f565b5b6020026020010151602001519050600080600090505b8251811015610169576001816100f791906106dd565b83516101039190610733565b600861010f9190610767565b600261011b91906108f4565b83828151811061012e5761012d61067f565b5b602001015160f81c60f81b60f81c60ff166101499190610767565b8261015491906106dd565b915080806101619061093f565b9150506100e1565b50808560008151811061017f5761017e61067f565b5b602002602001015160200151935093505050915091565b806000819055507f282d7b988193ef2b061fdd82459e654f1aa24bd020635132850aac0420385b65816040516101cc9190610664565b60405180910390a150565b60005481565b6000604051905090565b600080fd5b600080fd5b600080fd5b6000601f19601f8301169050919050565b7f4e487b7100000000000000000000000000000000000000000000000000000000600052604160045260246000fd5b61023f826101f6565b810181811067ffffffffffffffff8211171561025e5761025d610207565b5b80604052505050565b60006102716101dd565b905061027d8282610236565b919050565b600067ffffffffffffffff82111561029d5761029c610207565b5b602082029050602081019050919050565b600080fd5b600080fd5b600080fd5b600073ffffffffffffffffffffffffffffffffffffffff82169050919050565b60006102e8826102bd565b9050919050565b6102f8816102dd565b811461030357600080fd5b50565b600081359050610315816102ef565b92915050565b600080fd5b600067ffffffffffffffff82111561033b5761033a610207565b5b610344826101f6565b9050602081019050919050565b82818337600083830152505050565b600061037361036e84610320565b610267565b90508281526020810184848401111561038f5761038e61031b565b5b61039a848285610351565b509392505050565b600082601f8301126103b7576103b66101f1565b5b81356103c7848260208601610360565b91505092915050565b6000604082840312156103e6576103e56102b3565b5b6103f06040610267565b9050600061040084828501610306565b600083015250602082013567ffffffffffffffff811115610424576104236102b8565b5b610430848285016103a2565b60208301525092915050565b600061044f61044a84610282565b610267565b90508083825260208201905060208402830185811115610472576104716102ae565b5b835b818110156104b957803567ffffffffffffffff811115610497576104966101f1565b5b8086016104a489826103d0565b85526020850194505050602081019050610474565b5050509392505050565b600082601f8301126104d8576104d76101f1565b5b81356104e884826020860161043c565b91505092915050565b600060208284031215610507576105066101e7565b5b600082013567ffffffffffffffff811115610525576105246101ec565b5b610531848285016104c3565b91505092915050565b6000819050919050565b61054d8161053a565b82525050565b600081519050919050565b600082825260208201905092915050565b60005b8381101561058d578082015181840152602081019050610572565b8381111561059c576000848401525b50505050565b60006105ad82610553565b6105b7818561055e565b93506105c781856020860161056f565b6105d0816101f6565b840191505092915050565b60006040820190506105f06000830185610544565b818103602083015261060281846105a2565b90509392505050565b6106148161053a565b811461061f57600080fd5b50565b6000813590506106318161060b565b92915050565b60006020828403121561064d5761064c6101e7565b5b600061065b84828501610622565b91505092915050565b60006020820190506106796000830184610544565b92915050565b7f4e487b7100000000000000000000000000000000000000000000000000000000600052603260045260246000fd5b7f4e487b7100000000000000000000000000000000000000000000000000000000600052601160045260246000fd5b60006106e88261053a565b91506106f38361053a565b9250827fffffffffffffffffffffffffffffffffffffffffffffffffffffffffffffffff03821115610728576107276106ae565b5b828201905092915050565b600061073e8261053a565b91506107498361053a565b92508282101561075c5761075b6106ae565b5b828203905092915050565b60006107728261053a565b915061077d8361053a565b9250817fffffffffffffffffffffffffffffffffffffffffffffffffffffffffffffffff04831182151516156107b6576107b56106ae565b5b828202905092915050565b60008160011c9050919050565b6000808291508390505b6001851115610818578086048111156107f4576107f36106ae565b5b60018516156108035780820291505b8081029050610811856107c1565b94506107d8565b94509492505050565b60008261083157600190506108ed565b8161083f57600090506108ed565b8160018114610855576002811461085f5761088e565b60019150506108ed565b60ff841115610871576108706106ae565b5b8360020a915084821115610888576108876106ae565b5b506108ed565b5060208310610133831016604e8410600b84101617156108c35782820a9050838111156108be576108bd6106ae565b5b6108ed565b6108d084848460016107ce565b925090508184048111156108e7576108e66106ae565b5b81810290505b9392505050565b60006108ff8261053a565b915061090a8361053a565b92506109377fffffffffffffffffffffffffffffffffffffffffffffffffffffffffffffffff8484610821565b905092915050565b600061094a8261053a565b91507fffffffffffffffffffffffffffffffffffffffffffffffffffffffffffffffff82141561097d5761097c6106ae565b5b60018201905091905056fea2646970667358221220f52ce8866d6f1ffd2632be0115c1918a27ab44d0ce3183650303d74d2dd6484664736f6c634300080b0033",
  "immutableReferences": {},
  "source": "// SPDX-License-Identifier: MIT\npragma solidity ^0.8.11;\n\ncontract MyContract {\n  uint public data;\n  event DataChange(uint data);\n  function setData(uint _data) external {\n    data = _data;\n    emit DataChange(_data);\n  }\n  struct Call {\n    address target;\n    bytes callData;\n  }\n  function test(Call[] memory calls) public pure returns (uint256 a1, bytes memory a2){\n    bytes memory b = calls[0].callData;\n    // Hm convert bytes sang uint\n    uint256 number;\n    for(uint i=0;i<b.length;i++){\n      number = number + uint(uint8(b[i]))*(2**(8*(b.length-(i+1))));\n    }\n    return (number, calls[0].callData);\n  }\n}\n",
  "sourcePath": "D:\\Blockchain\\Lp trnh blockchain\\Ethers lib\\Code\\EthersJS Basic\\contracts\\MyContract.sol",
  "compiler": {
    "name": "solc",
    "version": "0.8.11+commit.d7f03943.Emscripten.clang"
  },
  "schemaVersion": "3.4.5",
  "updatedAt": "2022-10-04T13:44:25.882Z",
  "networkType": "ethereum",
  "devdoc": {
    "kind": "dev",
    "methods": {},
    "version": 1
  },
  "userdoc": {
    "kind": "user",
    "methods": {},
    "version": 1
  }
}